:1000000032C100004DC100004BC1000049C10000D9
:1000100047C1000045C1000043C1000041C10000CC
:100020003FC100003DC100003BC1000039C10000DC
:1000300037C10000E6C1000033C1000031C100003B
:100040002FC100002DC100002BC1000029C10000FC
:1000500027C1000025C1000023C1000021C100000C
:100060001FC100001DC100001BC1000019C100001C
:1000700017C1000015C1000013C1000011C100002C
:100080000FC100000DC100000BC1000009C100003C
:1000900007C1000005C1000003C1000001C100004C
:1000A000FFC00000FDC00000FBC00000F9C0000060
:1000B000F7C00000F5C00000C7C10000F1C000009B
:1000C000EFC00000EDC00000EBC00000E9C0000080
:1000D000E7C00000E5C00000E3C00000E1C0000090
:1000E000DFC00000DDC00000DBC00000D9C00000A0
:1000F000D7C00000D5C00000D3C00000D1C00000B0
:100100000C948A1BCDC00000CBC00000C9C0000009
:10011000C7C00000C5C00000C3C000000C94061C8E
:100120000C94341C0C94621C0C94901CB9C00000FC
:10013000B7C00000B5C00000B3C00000B1C00000EF
:10014000AFC00000ADC00000ABC00000A9C00000FF
:10015000A7C00000A5C00000A3C00000A1C000000F
:100160009FC000009DC000009BC0000099C000001F
:1001700097C0000095C0000093C0000091C000002F
:100180008FC000008DC000008BC0000089C000003F
:1001900087C0000085C0000083C0000081C000004F
:1001A0007FC000007DC000007BC0000079C000005F
:1001B00077C0000075C0000073C0000071C000006F
:1001C0006FC000006DC000006BC0000069C000007F
:1001D00067C0000065C0000063C0000061C000008F
:1001E0005FC000005DC000005BC0000059C000009F
:1001F00057C0000055C0000053C00000036EDB363E
:100200003D9A9999993DABAAAA2A3E000000803FE9
:10021000084AD73B3BCE016E84BCBFFDC12F3D6C6D
:1002200074319ABD56833DDA3D00C77F11BED9E4D3
:10023000BB4C3E916BAAAABE000000803F072C7AFF
:10024000A5BA6CC590DA3B9365FC8BBC53F810FDE6
:100250003C5692834DBD879D3AB63DCBC9BF5BBE30
:1002600073DA0FC93F0011241FBECFEFCDBFDFE20D
:10027000DEBF10E2A0E0B0E2E0ECFEE402C00590D8
:100280000D92A63EB107D9F722E2A6EEB0E201C078
:100290001D92AA34B207E1F70E94F71D0C945E2765
:1002A000AFCECF93DF931F92CDB7DEB780913E22C2
:1002B00090913F22E0912322F0912422BE016F5FB2
:1002C0007F4F09958981082E000C990B0F90DF91C3
:1002D000CF910895CF93DF93E091E620F091E7204E
:1002E000848183FF08C08860848383E0838386EFF2
:1002F0008093F02083C0982F947131F083E0838342
:100300008FEF8093F0207AC086FF43C0C6EED0E224
:10031000AA81BB818C819D8114962D913C9115976A
:10032000821793076CF49C012F5F3F4F2093EA20C4
:100330003093EB20A80FB91F11968C9187835EC074
:100340008091EC209091ED2018962D913C91199779
:1003500082179307C8F42091EE20222321F0868192
:10036000816086834BC016962D913C911797AC0106
:100370004F5F5F4F4093EC205093ED20D901A80FC1
:10038000B91F8C9187833AC083E083831092F02059
:1003900035C0882384F5A6EEB0E21296CD91DC91AB
:1003A000139716968D919C911797288539858217FA
:1003B0009307D8F46E817F819C012F5F3F4F20937C
:1003C000EC203093ED204781DB01A80FB91F4C933F
:1003D000888599852817390718F482E083830EC031
:1003E00087E083831092F02009C083E0838389EF44
:1003F0008093F02003C08BEF8093F020DF91CF91AA
:1004000008951F920F920FB60F9211242F933F93CE
:100410004F935F936F937F938F939F93AF93BF930C
:10042000EF93FF9357DFFF91EF91BF91AF919F91B2
:100430008F917F916F915F914F913F912F910F908D
:100440000FBE0F901F9018951F920F920FB60F922C
:1004500011242F933F934F935F936F937F938F93C9
:100460009F93AF93BF93EF93FF9334DFFF91EF918F
:10047000BF91AF919F918F917F916F915F914F91BC
:100480003F912F910F900FBE0F901F901895FC0178
:10049000DB0114968C91858388EB818381E08483D2
:1004A000E6EEF0E211861286E0EAF0E082818260F8
:1004B0008283789480E00895CF93DF931F92CDB725
:1004C000DEB79C01FB01892B09F451C0309709F478
:1004D00050C092858091EF20882319F09923F1F381
:1004E0004AC08FB78983F8948981A6EEB0E291E083
:1004F00019969C93199790E81A969C931A978FBF18
:100500002D933C93119712966D937C9313971496A9
:100510001D921C92159716961D921C92179718966D
:100520004C938081880F64817581672B11F4411190
:1005300003C0F901868303C08160F9018683E6EE7A
:10054000F0E292859038E9F3F9018481837081307B
:1005500049F0A6EEB0E2ED91FC9111978481837091
:100560008130C9F7E6EEF0E28285118605C088EF9A
:1005700003C088EF01C086EF0F90DF91CF910895FF
:10058000FC01918195FFFDCF608380E090E00895AC
:10059000FC0191819923ECF7808108954F925F923D
:1005A0006F927F928F929F92AF92BF92EF92FF9243
:1005B0000F931F93CF937C014A015B0128013901FE
:1005C000FC01848182FF16C0D901C801689412F829
:1005D000B695A795979587951694D1F7B901A80177
:1005E000032E36E176956795579547953A95D1F75D
:1005F000302D15C0D901C801689413F8B695A79598
:10060000979587951694D1F7B901A801032E37E184
:1006100076956795579547953A95D1F7302D88157A
:100620009905AA05BB0508F4A6C084169506A6067A
:10063000B70608F4A2C0F701848182FD04C0880CCB
:10064000991CAA1CBB1CC301B201A50194010E9404
:10065000BA222F3F31054105510508F490C08FEFB4
:1006600090E0A0E0B0E0C9EF05C0281739074A07BD
:100670005B0758F0880F991FAA1FBB1FCD3F0CF4D2
:100680008160CF5FC73089F74FC0CC230CF04CC0DE
:10069000D501C401880F991FAA1FBB1F880F991F7E
:1006A000AA1FBB1F880F991FAA1FBB1F481A590AF0
:1006B0006A0A7B0ACE3FF4F48DEF9FEF8C1B910901
:1006C000C7FD939504C0440C551C661C771C8A9585
:1006D000D2F7D501C401B695A79597958795BC012A
:1006E000CD01640D751D861D971DA50194010E9405
:1006F000BA2237C083E08C0FA501940104C0220FF9
:10070000331F441F551F8A95D2F7DA01C901B695E8
:10071000A79597958795BC01CD01640D751D861D24
:10072000971D0E94BA221DC083E08C0FA501940181
:1007300004C0220F331F441F551F8A95D2F7DA01D8
:10074000C901B695A79597958795BC01CD01640D14
:10075000751D861D971D0E94BA222150310941093D
:100760005109832F8F70C295C07FC82BF701C783B3
:10077000268381E018C080E016C080E014C0D50157
:10078000C401880F991FAA1FBB1F880F991FAA1F9A
:10079000BB1F880F991FAA1FBB1F481A590A6A0A54
:1007A0007B0AC9EF89CFCF911F910F91FF90EF90F6
:1007B000BF90AF909F908F907F906F905F904F9081
:1007C00008950F931F93CF93DF93EC018B01009754
:1007D00009F4D6C0803C910529F460E180E00E94D4
:1007E000041DCEC0C11584E0D80729F464E080E080
:1007F0000E94041DC5C0C038E1E0DE0729F462E0B4
:1008000080E00E94041DBCC0C115F1E0DF0729F49F
:1008100061E080E00E94041DB3C0C03883E0D807C7
:1008200029F461E081E00E94041DAAC0C115E2E044
:10083000DE0729F462E081E00E94041DA1C0C032FD
:10084000F3E0DF0729F464E082E00E94041D98C011
:10085000C11588E0D80729F461E083E00E94041DF7
:100860008FC0C115E9E0DE0729F461E084E00E9451
:10087000041D86C0C115FAE0DF0729F461E085E0B8
:100880000E94041D7DC0C03488E0D80729F462E0CE
:1008900083E00E94041D74C0C034E9E0DE0729F43F
:1008A00062E084E00E94041D6BC0C039F8E0DF07FD
:1008B00029F464E083E00E94041D62C0C03989E02D
:1008C000D80729F464E084E00E94041D59C0C039AF
:1008D000EAE0DE0729F464E085E00E94041D50C0D0
:1008E000C03CF8E0DF0729F468E083E00E94041DC3
:1008F00047C0C03C89E0D80729F468E084E00E9442
:10090000041D3EC0C03AE8E0DE0729F460E183E060
:100910000E94041D35C0C03AF9E0DF0729F460E108
:1009200084E00E94041D2CC0C03A8AE0D80729F454
:1009300060E185E00E94041D23C0C03BE8E0DE07C3
:1009400029F460E283E00E94041D1AC0C03BF9E074
:10095000DF0729F460E284E00E94041D11C0C03862
:1009600084E0D80729F460E483E00E94041D08C0F5
:10097000C03AE4E0DE0721F460E485E00E94041D53
:100980008D818F738D83F80195818481892B968168
:10099000911198E0892B8D83F8014081518162810A
:1009A000738100E018E428EE31E0CE01F7DD9C8190
:1009B00098609C839C8190619C83DF91CF911F9173
:1009C0000F910895FF920F931F93CF93DF93C0E091
:1009D000D2E0FF24F394F882198280E18A8385E0D3
:1009E0008C8361E270E082E00E941A1D082F10E003
:1009F000102F002760E270E082E00E941A1D082B91
:100A00000C871D87F8A288E089A3DF91CF911F9101
:100A10000F91FF900895E0E0F2E080A1806880A34C
:100A200083A18823E9F3E0E0F2E013A284A195A179
:100A3000089544E60C948F1908952F923F924F9297
:100A40005F926F927F928F929F92AF92BF92CF925E
:100A5000DF92EF92FF920F931F93CF93DF93CDB767
:100A6000DEB7C154D109CDBFDEBF1C01CE01019656
:100A70000E94FD1985E1FE013196A7E2B2E20190E4
:100A80000D928A95E1F707E212E2F8016181728125
:100A9000072E000C880B990B0E94DD206B017C0156
:100AA00060910C2070910D20072E000C880B990B83
:100AB0000E94DD209B01AC01C701B6010E94611FAD
:100AC0005B016C01F80165857685072E000C880BAB
:100AD000990B0E94DD202B013C016091F120709167
:100AE000F220072E000C880B990B0E94DD209B0141
:100AF000AC01C301B2010E94611F20E030E040E080
:100B000057E40E94611F20E030E04AE755E40E946C
:100B1000E92120E03FEF4FE757E40E94422020E028
:100B200030E04AEF54E40E94601F6A8F7B8F8C8F05
:100B30009D8FF80163857485072E000C880B990B37
:100B40000E94DD202B013C016091F3207091F42084
:100B5000072E000C880B990B0E94DD209B01AC0135
:100B6000C301B2010E94611F20E030E040E057E481
:100B70000E94611F20E030E04AE755E40E94E9212D
:100B800020E03FEF4FE757E40E94422020E030E0B2
:100B90004AEF54E40E94601F6E8F7F8F88A399A351
:100BA000F80161857285072E000C880B990B0E9455
:100BB000DD202B013C016091062070910720072E5B
:100BC000000C880B990B0E94DD209B01AC01C30136
:100BD000B2010E94611F20E030E040E057E40E9433
:100BE000611F20E030E04AE755E40E94E92120E05F
:100BF0003FEF4FE757E40E94422020E030E04AEF09
:100C000054E40E94601F2B013C01F8016389748940
:100C1000072E000C880B990B0E94DD206E8B7F8BBA
:100C2000888F998F60910E2070910F20072E000CF5
:100C3000880B990B0E94DD209B01AC016E897F8996
:100C4000888D998D0E94611FDC01CB01B058BF9344
:100C5000AF939F938F93F80167857089072E000CDF
:100C6000880B990B0E94DD206E8B7F8B888F998F6C
:100C70006091122070911320072E000C880B990BA5
:100C80000E94DD209B01AC016E897F89888D998D42
:100C90000E94611F9F938F937F936F93F8016189E7
:100CA0007289072E000C880B990B0E94DD206E8B39
:100CB0007F8B888F998F6091102070911120072E63
:100CC000000C880B990B0E94DD209B01AC016E8902
:100CD0007F89888D998D0E94611F9F938F937F9349
:100CE0006F93F80165817681072E000C880B990BB4
:100CF0000E94DD206E8B7F8B888F998F60910820FA
:100D000070910920072E000C880B990B0E94DD20A2
:100D10009B01AC016E897F89888D998D0E94611F2E
:100D20009F938F937F936F93F80163817481072E54
:100D3000000C880B990B0E94DD206E8B7F8B888FB7
:100D4000998F60910A2070910B20072E000C880B60
:100D5000990B0E94DD209B01AC016E897F89888DF3
:100D6000998D0E94611F9F938F937F936F93EA8C5D
:100D7000FB8C0C8D1D8D2E8D3F8D48A159A1C3017B
:100D8000B20183D7609114207091152080911620B4
:100D90009091172020911420309115204091162019
:100DA00050911720C0900921D0900A21E0900B218A
:100DB000F0900C218090092190900A21A0900B21A5
:100DC000B0900C21409005215090062160900721A1
:100DD000709008214A8E5B8E6C8E7D8E409005212E
:100DE0005090062160900721709008214E8E5F8EF2
:100DF00068A279A2409001215090022160900321C5
:100E0000709004214E8A5F8A688E798E409001210D
:100E10005090022160900321709004214AA25BA2AD
:100E20006CA27DA24090092150900A2160900B2174
:100E300070900C214EA25FA268A679A64090052171
:100E40005090062160900721709008214AA65BA669
:100E50006CA67DA64090142050901520609016201E
:100E6000709017204EAA5FAA68AE79AE409001211B
:100E70005090022160900321709004214EA65FA63D
:100E800068AA79AA0E94E9212B013C01A5019401DD
:100E9000C701B6010E94E9219B01AC01C301B20167
:100EA0000E94611F6B017C012E8D3F8D48A159A1CD
:100EB0006A8D7B8D8C8D9D8D0E94E9219B01AC01FB
:100EC000C701B6010E94601F6B017C012AA13BA1F2
:100ED0004CA15DA16E897F89888D998D0E94E92141
:100EE0009B01AC01C701B6010E94601F6B017C0130
:100EF0002AA53BA54CA55DA56EA17FA188A599A5B6
:100F00000E94E9214B015C012EA53FA548A959A9E2
:100F10006EA97FA988AD99AD0E94E9219B01AC0122
:100F2000C501B4010E94611F9B01AC010E94611FB9
:100F3000A70196010E94EB1F6A8F7B8F8C8F9D8F7C
:100F40006091092170910A2180910B2190910C21CF
:100F500020910121309102214091032150910421DF
:100F60008090142090901520A0901620B09017200B
:100F70004090052150900621609007217090082133
:100F80000E94E9216B017C01A3019201C501B4011A
:100F90000E94E9219B01AC01C701B6010E94601FBC
:100FA0009B01AC010E94611F0E94C51F6E8F7F8F45
:100FB00088A399A360911420709115208091162028
:100FC00090911720209114203091152040911620E7
:100FD000509117208090092190900A21A0900B2118
:100FE000B0900C214090092150900A2160900B2173
:100FF00070900C21E0900521F090062100910721CE
:1010000010910821EE8AFF8A088F198FE090052140
:10101000F09006210091072110910821EAA2FBA27D
:101020000CA31DA3E0900121F09002210091032167
:1010300010910421EEA2FFA208A719A7E0900121B8
:10104000F09002210091032110910421EAA6FBA651
:101050000CA71DA7E0901420F090152000911620F9
:1010600010911720EEA6FFA608AB19ABE09009215E
:10107000F0900A2100910B2110910C21EAAAFBAA01
:101080000CAB1DABE0900521F090062100910721EB
:10109000109108212296ECAEFDAE0EAF1FAF229745
:1010A000E0900121F0900221009103211091042190
:1010B000EEAAFFAA08AF19AF0E94E9216B017C01DB
:1010C000A3019201C501B4010E94E9219B01AC0179
:1010D000C701B6010E94601F4B015C012AA13BA120
:1010E0004CA15DA16E897F89888D998D0E94E9212F
:1010F0009B01AC01C501B4010E94601F4B015C0162
:101100002AA53BA54CA55DA56EA17FA188A599A5A3
:101110000E94E9219B01AC01C501B4010E94611F3D
:101120002B013C012AA93BA94CA95DA96EA57FA56D
:1011300088A999A90E94E9214B015C012EA93FA928
:1011400048AD59AD22966CAD7DAD8EAD9FAD229769
:101150000E94E9219B01AC01C501B4010E94611FFD
:101160009B01AC010E94611FA30192010E94EB1F31
:101170006B017C0185E1E7E2F2E2D1011C9601906E
:101180000D928A95E1F76E8D7F8D88A199A1905877
:101190002DEE3EE245E652E40E94E921F101608332
:1011A0007183828393832DEE3EE245E652E4C701CC
:1011B000B6010E94E921F1016483758386839783D8
:1011C0002DEE3EE245E652E46A8D7B8D8C8D9D8D41
:1011D0000E94E921F1016087718782879387CDBFE3
:1011E000DEBFC101CF5BDF4FCDBFDEBFDF91CF914F
:1011F0001F910F91FF90EF90DF90CF90BF90AF9035
:101200009F908F907F906F905F904F903F902F9026
:101210000895CF92DF92EF92FF920F931F938B016D
:101220009C0135952795179507950F2EFFEDCF2E2D
:10123000F9E5DF2EF7E3EF2EFFE5FF2EF02DC01AC4
:10124000D10AE20AF30A20E030E040E05FE30E94C6
:10125000E921A70196010E94E921A70196010E94B8
:10126000E9219B01AC0160E070E080EC9FE30E940B
:10127000601FA70196010E94E9211F910F91FF9025
:10128000EF90DF90CF9008954F925F926F927F9290
:101290008F929F92AF92BF92CF92DF92EF92FF9286
:1012A0000F931F93CF93DF93CDB7DEB7A497CDBF36
:1012B000DEBF69877A878B879C872D873E874F871C
:1012C000588BE98AFA8A0B8B1C8B20E030E0A9014D
:1012D000C601B5010E943E20811117C020E030E018
:1012E000A9016FA978AD89AD9AAD0E943E20811108
:1012F0000CC020E030E0A9016BAD7CAD8DAD9EADA2
:101300000E943E20882309F460C2A6019501C6010F
:10131000B5010E94E9212B013C012FA938AD49AD4F
:101320005AADCA01B9010E94E9219B01AC01C30178
:10133000B2010E94611F2B013C012BAD3CAD4DADB4
:101340005EADCA01B9010E94E9219B01AC01C30154
:10135000B2010E94611F5DDF2B013C019B01AC01CA
:10136000C601B5010E94E92169837A838B839C833E
:10137000A30192016FA978AD89AD9AAD0E94E921D0
:101380006D837E838F839887A30192016BAD7CADC3
:101390008DAD9EAD0E94E9216D8B7E8B8F8B988FDA
:1013A0006091092170910A2180910B2190910C216B
:1013B000209101213091022140910321509104217B
:1013C0008090142090901520A0901620B0901720A7
:1013D00040900521509006216090072170900821CF
:1013E0000E94E9216B017C01A3019201C501B401B6
:1013F0000E94E9219B01AC01C701B6010E94601F58
:10140000698F7A8F8B8F9C8F60911420709115203B
:1014100080911620909117202091092130910A2166
:1014200040910B2150910C21809005219090062134
:10143000A0900721B09008214090012150900221F6
:1014400060900321709004210E94E9216B017C01CE
:10145000A3019201C501B4010E94E9219B01AC01E5
:10146000C701B6010E94611F6D8F7E8F8F8F98A379
:101470006091142070911520809116209091172072
:101480002091142030911520409116205091172062
:101490008090012190900221A0900321B09004211E
:1014A000409001215090022160900321709004210E
:1014B0000E94E92120E030E040E05FE30E94601FED
:1014C0006B017C01A3019201C501B4010E94E921D5
:1014D0009B01AC01C701B6010E94611F6B017C0139
:1014E0009B01AC016D817E818F8198850E94E921ED
:1014F0004B015C012D8D3E8D4F8D58A16D897E89EC
:101500008F89988D0E94E9219B01AC01C501B4012E
:101510000E94601F69A37AA38BA39CA3298D3A8D97
:101520004B8D5C8D6D897E898F89988D0E94E92114
:101530004B015C01A701960169817A818B819C81B5
:101540000E94E9219B01AC01C501B4010E94601F0A
:101550004B015C012D8D3E8D4F8D58A169817A81A3
:101560008B819C810E94E9216B017C01298D3A8D40
:101570004B8D5C8D6D817E818F8198850E94E921E4
:101580009B01AC01C701B6010E94601F6B017C0189
:1015900060910D2170910E2180910F219091102169
:1015A00020E030E0A9010E94DE2118160CF0ABC04B
:1015B00020910D2130910E2140910F215091102149
:1015C0004090FD205090FE206090FF207090002100
:1015D00069A17AA18BA19CA10E94E9212AEF39EC93
:1015E00044E359E30E94E921A30192010E94611F93
:1015F0006093FD207093FE208093FF209093002144
:1016000020910D2130910E2140910F2150911021F8
:101610004090F9205090FA206090FB207090FC20C0
:10162000C501B4010E94E9212AEF39EC44E359E3F2
:101630000E94E921A30192010E94611F6093F92099
:101640007093FA208093FB209093FC2020910D2131
:1016500030910E2140910F21509110214090F520A2
:101660005090F6206090F7207090F820C701B601E6
:101670000E94E9212AEF39EC44E359E30E94E92171
:10168000A30192010E94611F6093F5207093F620E0
:101690008093F7209093F8202091FD203091FE2038
:1016A0004091FF205091002169857A858B859C852A
:1016B0000E94611F69877A878B879C872091F92018
:1016C0003091FA204091FB205091FC206D857E8561
:1016D0008F8598890E94611F6D877E878F87988B81
:1016E0002091F5203091F6204091F7205091F8207C
:1016F00069897A898B899C890E94611F698B7A8BA1
:101700008B8B9C8B18C01092FD201092FE201092A3
:10171000FF20109200211092F9201092FA201092CE
:10172000FB201092FC201092F5201092F6201092CF
:10173000F7201092F8202091182030911920409124
:101740001A2050911B2069A17AA18BA19CA10E9413
:10175000E9219B01AC0169857A858B859C850E9476
:10176000611F69877A878B879C8720911820309129
:10177000192040911A2050911B20C501B4010E94EC
:10178000E9219B01AC016D857E858F8598890E943A
:10179000611F6D877E878F87988B209118203091ED
:1017A000192040911A2050911B20C701B6010E94B8
:1017B000E9219B01AC0169897A898B899C890E9406
:1017C000611F698B7A8B8B8B9C8B2AEF39EC44EBF6
:1017D00058E369857A858B859C850E94E921698714
:1017E0007A878B879C872AEF39EC44EB58E36D8529
:1017F0007E858F8598890E94E9216D877E878F87F6
:10180000988B2AEF39EC44EB58E369897A898B8904
:101810009C890E94E921698B7A8B8B8B9C8BE09051
:101820001420F09015200091162010911720ED82C1
:10183000FE820F8318878090092190900A21A09042
:101840000B21B0900C21E0900521F0900621009131
:10185000072110910821ED8AFE8A0F8B188F409086
:101860000121509002216090032170900421C090CA
:101870001420D0901520E0901620F0901720C5017C
:10188000B401905829853A854B855C850E94E921F1
:1018900069837A838B839C832D893E894F89588DF8
:1018A0006D857E858F8598890E94E9219B01AC0119
:1018B00069817A818B819C810E94601F69837A8310
:1018C0008B839C83A301920169897A898B899C8986
:1018D0000E94E9219B01AC0169817A818B819C8105
:1018E0000E94601FA70196010E94611F609314204F
:1018F000709315208093162090931720409001211B
:10190000509002216090032170900421C090092121
:10191000D0900A21E0900B21F0900C212D813E8186
:101920004F81588569857A858B859C850E94E92140
:1019300069837A838B839C832D893E894F89588D57
:1019400069897A898B899C890E94E9219B01AC0174
:1019500069817A818B819C810E94611F69837A836E
:101960008B839C83A30192016D857E858F859889E9
:101970000E94E9219B01AC0169817A818B819C8164
:101980000E94601FA70196010E94611F60930921B8
:1019900070930A2180930B2190930C214090012198
:1019A000509002216090032170900421C090052185
:1019B000D0900621E0900721F09008212D813E81F2
:1019C0004F8158856D857E858F8598890E94E92194
:1019D00069837A838B839C83A501940169897A89C1
:1019E0008B899C890E94E9219B01AC0169817A81E4
:1019F0008B819C810E94601F69837A838B839C8387
:101A0000A301920169857A858B859C850E94E921D5
:101A10009B01AC0169817A818B819C810E94611F4D
:101A2000A70196010E94611F609305217093062112
:101A30008093072190930821C0900121D09002212A
:101A4000E0900321F09004212D813E814F81588543
:101A500069897A898B899C890E94E9212B013C0143
:101A6000A50194016D857E858F8598890E94E92165
:101A70009B01AC01C301B2010E94611F4B015C01DB
:101A80002D893E894F89588D69857A858B859C85FE
:101A90000E94E9219B01AC01C501B4010E94601FB5
:101AA000A70196010E94611F60930121709302219A
:101AB000809303219093042160911420709115204C
:101AC000809116209091172020911420309115209C
:101AD00040911620509117208090092190900A2162
:101AE000A0900B21B0900C214090092150900A2128
:101AF00060900B2170900C21E0900521F090062160
:101B00000091072110910821E986FA860B871C872E
:101B1000E0900521F0900621009107211091082105
:101B2000ED86FE860F87188BE0900121F090022150
:101B30000091032110910421E982FA820B831C8316
:101B4000E0900121F09002210091032110910421E5
:101B5000E98AFA8A0B8B1C8B0E94E9216B017C01BC
:101B6000A3019201C501B4010E94E9219B01AC01CE
:101B7000C701B6010E94611F4B015C012D853E85A6
:101B80004F85588969857A858B859C850E94E921D6
:101B90009B01AC01C501B4010E94611F4B015C01B6
:101BA00029893A894B895C8969817A818B819C81F9
:101BB0000E94E9219B01AC01C501B4010E94611F93
:101BC00028DB6B017C01209114203091152040917D
:101BD0001620509117200E94E921609314207093E1
:101BE0001520809316209093172020910921309181
:101BF0000A2140910B2150910C21C701B6010E948E
:101C0000E9216093092170930A2180930B2190931D
:101C10000C212091052130910621409107215091FE
:101C20000821C701B6010E94E92160930521709344
:101C30000621809307219093082120910121309162
:101C400002214091032150910421C701B6010E9455
:101C5000E9216093012170930221809303219093E5
:101C60000421A496CDBFDEBFDF91CF911F910F91CC
:101C7000FF90EF90DF90CF90BF90AF909F908F90AC
:101C80007F906F905F904F9008952F923F924F9268
:101C90005F926F927F928F929F92AF92BF92CF92FC
:101CA000DF92EF92FF920F931F93CF93DF93CDB705
:101CB000DEB7C855D109CDBFDEBF698B7A8B8B8B60
:101CC0009C8B298F3A8F4B8F5C8FE982FA820B8332
:101CD0001C83AE96FFACAE97AF96EFACAF97E09695
:101CE0009FACE097E1968FACE197E2961FADE2974B
:101CF000E3960FADE397E4963FACE497E5962FACFF
:101D0000E59720E030E0A901E9966CAD7DAD8EADA0
:101D10009FADE9970E943E20811134C020E030E061
:101D2000A901ED966CAD7DAD8EAD9FADED970E9496
:101D30003E20811127C020E030E0A901C358DF4FC9
:101D4000688179818A819B81CD57D0400E943E2055
:101D5000811118C02F923F920F931F938F929F92E1
:101D6000EF92FF92E980FA800B811C81298D3A8DD8
:101D70004B8D5C8D69897A898B899C8985DACDBF89
:101D8000DEBFA4C720E030E0A901C601B5010E9472
:101D90003E20811117C020E030E0A9016F2D7E2D7B
:101DA000892D982D0E943E2081110CC020E030E04A
:101DB000A901612F702F832D922D0E943E20882330
:101DC00009F437C5A6019501C601B5010E94E921B4
:101DD0002B013C012F2D3E2D492D582D6F2D7E2D91
:101DE000892D982D0E94E9219B01AC01C301B2010C
:101DF0000E94611F2B013C01212F302F432D522DBA
:101E0000612F702F832D922D0E94E9219B01AC013F
:101E1000C301B2010E94611FFCD92B013C019B014F
:101E2000AC01C601B5010E94E9216DAB7EAB8FAB61
:101E300098AFA30192016F2D7E2D892D982D0E94C0
:101E4000E92169AF7AAF8BAF9CAFA3019201612FFB
:101E5000702F832D922D0E94E92121966CAF7DAFCA
:101E60008EAF9FAF2197E9962CAD3DAD4EAD5FADE6
:101E7000E997CA01B9010E94E9216B017C01ED9645
:101E80002CAD3DAD4EAD5FADED97CA01B9010E94DD
:101E9000E9219B01AC01C701B6010E94611F6B01E2
:101EA0007C01C358DF4F288139814A815B81CD573E
:101EB000D040CA01B9010E94E9219B01AC01C701D0
:101EC000B6010E94611FA5D96B017C019B01AC0189
:101ED000E9966CAD7DAD8EAD9FADE9970E94E9218D
:101EE0006D837E838F839887A7019601ED966CADF5
:101EF0007DAD8EAD9FADED970E94E92169877A8710
:101F00008B879C87A7019601C358DF4F6881798131
:101F10008A819B81CD57D0400E94E9216D877E87C1
:101F20008F87988B40901420509015206090162039
:101F300070901720E0901420F0901520009116204A
:101F4000109117206996ECAEFDAE0EAF1FAF6997EA
:101F50006091142070911520809116209091172087
:101F60002091092130910A2140910B2150910C219F
:101F70000E94E92169A37AA38BA39CA360911420FA
:101F800070911520809116209091172020910521A5
:101F90003091062140910721509108210E94E921AA
:101FA0006D8F7E8F8F8F98A3609114207091152074
:101FB00080911620909117202091012130910221CB
:101FC00040910321509104210E94E9216D8B7E8B69
:101FD0008F8B988FC0900921D0900A21E0900B211F
:101FE000F0900C218091092190910A21A0910B2160
:101FF000B0910C2189AB9AABABABBCAB6091092122
:1020000070910A2180910B2190910C212091052142
:102010003091062140910721509108210E94E92129
:1020200069A77AA78BA79CA76091092170910A21C3
:1020300080910B2190910C2120910121309102215E
:1020400040910321509104210E94E9216DA77EA7B0
:102050008FA798AB6091052170910621809107218F
:10206000909108212091052130910621409107216E
:10207000509108210E94E92125966CAF7DAF8EAF6B
:102080009FAF2597609105217091062180910721CE
:10209000909108212091012130910221409103214A
:1020A000509104210E94E92129966CAF7DAF8EAF3B
:1020B0009FAF2997609101217091022180910321A6
:1020C000909104212091012130910221409103211E
:1020D000509104210E94E9216DA37EA38FA398A7AC
:1020E00025962CAD3DAD4EAD5FAD259760E070E01F
:1020F00080E09FE30E94601F2DA13EA14FA158A543
:102100000E94601F2D966CAF7DAF8EAF9FAF2D9755
:102110002D893E894F89588D69A57AA58BA59CA5E7
:102120000E94601F61966CAF7DAF8EAF9FAF6197CD
:102130002DA53EA54FA558A96D8D7E8D8F8D98A19B
:102140000E94611F65966CAF7DAF8EAF9FAF6597A4
:102150002D962CAD3DAD4EAD5FAD2D976D817E8141
:102160008F8198850E94E9214B015C0161962CAD1D
:102170003DAD4EAD5FAD619769857A858B859C8558
:102180000E94E9219B01AC01C501B4010E94611FBD
:102190004B015C0165962CAD3DAD4EAD5FAD6597D5
:1021A0006D857E858F8598890E94E9219B01AC0110
:1021B000C501B4010E94611F9B01AC010E94611F17
:1021C0004B015C0129A93AA94BA95CA9C701B60139
:1021D0000E94E9219B01AC0160E070E080E09FE398
:1021E0000E94601F69AB7AAB8BAB9CAB29A53AA56B
:1021F0004BA55CA56D897E898F89988D0E94611F92
:102200002D813E814F8158850E94E9216B017C011F
:102210002DA13EA14FA158A569A97AA98BA99CA976
:102220000E94601F29853A854B855C850E94E921C3
:102230009B01AC01C701B6010E94611F6B017C01CB
:1022400029A13AA14BA15CA129966CAD7DAD8EADC3
:102250009FAD29970E94601F2D853E854F85588927
:102260000E94E9219B01AC01C701B6010E94611FD8
:102270009B01AC010E94611F6B017C01A5019401CF
:10228000C501B4010E94E9216D8B7E8B8F8B988FE5
:10229000A5019401C501B4010E94E9214B015C0133
:1022A000A7019601C701B6010E94E9219B01AC017B
:1022B000C501B4010E94611F0E9450224B015C01C4
:1022C0002D8D3E8D4F8D58A16DA57EA58FA598A90A
:1022D0000E94601F6D8F7E8F8F8F98A329962CADE3
:1022E0003DAD4EAD5FAD299769A17AA18BA19CA1AF
:1022F0000E94611F69A37AA38BA39CA325962CAD92
:102300003DAD4EAD5FAD259769A97AA98BA99CA972
:102310000E94601F6D8B7E8B8F8B988F2D8D3E8DD5
:102320004F8D58A16D817E818F8198850E94E92112
:102330006B017C0129A13AA14BA15CA169857A8539
:102340008B859C850E94E9219B01AC01C701B601E8
:102350000E94611F6B017C012D893E894F89588D38
:102360006D857E858F8598890E94E9219B01AC014E
:10237000C701B6010E94611F9B01AC010E94611F51
:102380006B017C0169962CAD3DAD4EAD5FAD69979B
:10239000C301B2010E94E92120E030E040E05FE3A8
:1023A0000E94601F2DA13EA14FA158A50E94611F50
:1023B0006DA37EA38FA398A7A50194012D966CAD64
:1023C0007DAD8EAD9FAD2D970E94E9212B013C0183
:1023D000A70196016D8D7E8D8F8D98A10E94E921B8
:1023E0009B01AC01C301B2010E94611F69A77AA7DA
:1023F0008BA79CA7A501940161966CAD7DAD8EADB8
:102400009FAD61970E94E9212B013C01A701960134
:1024100069A17AA18BA19CA10E94E9219B01AC0139
:10242000C301B2010E94611F6DA77EA78FA798AB61
:10243000A501940165966CAD7DAD8EAD9FAD6597A0
:102440000E94E9212B013C01A70196016D897E893B
:102450008F89988D0E94E9219B01AC01C301B201D3
:102460000E94611F6B017C012DA13EA14FA158A5C7
:1024700069AD7AAD8BAD9CAD0E94E9214B015C0149
:1024800029A13AA14BA15CA121966CAD7DAD8EAD89
:102490009FAD21970E94E9219B01AC01C501B401C8
:1024A0000E94601F4B015C01A701960169857A8536
:1024B0008B859C850E94E9212B013C012DA53EA521
:1024C0004FA558A96D857E858F8598890E94E92141
:1024D0009B01AC01C301B2010E94601F9B01AC01D2
:1024E000C501B4010E94611F6D8B7E8B8F8B988F0D
:1024F0002D8D3E8D4F8D58A121966CAD7DAD8EAD4D
:102500009FAD21970E94E9214B015C012DA13EA1C5
:102510004FA158A56DA97EA98FA998AD0E94E92168
:102520009B01AC01C501B4010E94601F4B015C011D
:1025300029A53AA54BA55CA56D857E858F859889D3
:102540000E94E9212B013C01A70196016D817E814A
:102550008F8198850E94E9219B01AC01C301B201E2
:102560000E94601F9B01AC01C501B4010E94611F64
:102570004B015C0129A13AA14BA15CA16DA97EA9E7
:102580008FA998AD0E94E9216B017C012D8D3E8DB4
:102590004F8D58A169AD7AAD8BAD9CAD0E94E921FC
:1025A0009B01AC01C701B6010E94601F6B017C0159
:1025B0002DA53EA54FA558A96D817E818F81988557
:1025C0000E94E9212B013C0129A53AA54BA55CA558
:1025D00069857A858B859C850E94E9219B01AC01E8
:1025E000C301B2010E94601F9B01AC01C701B6018B
:1025F0000E94611F6B017C0160910D2170910E2181
:1026000080910F219091102120E030E0A9010E94DB
:10261000DE2118160CF0ABC020910D2130910E2157
:1026200040910F21509110214090FD205090FE20AC
:102630006090FF20709000216D897E898F89988D30
:102640000E94E9212AEF39EC44E359E30E94E92191
:10265000A30192010E94611F6093FD207093FE20F0
:102660008093FF209093002120910D2130910E2125
:1026700040910F21509110214090F9205090FA2064
:102680006090FB207090FC20C501B4010E94E921FC
:102690002AEF39EC44E359E30E94E921A3019201B6
:1026A0000E94611F6093F9207093FA208093FB20B1
:1026B0009093FC2020910D2130910E2140910F210B
:1026C000509110214090F5205090F6206090F72016
:1026D0007090F820C701B6010E94E9212AEF39EC79
:1026E00044E359E30E94E921A30192010E94611F82
:1026F0006093F5207093F6208093F7209093F82054
:102700002091FD203091FE204091FF20509100212A
:1027100069897A898B899C890E94611F698B7A8B70
:102720008B8B9C8B2091F9203091FA204091FB20DB
:102730005091FC20698D7A8D8B8D9C8D0E94611F3C
:10274000698F7A8F8B8F9C8F2091F5203091F620A6
:102750004091F7205091F82069817A818B819C818A
:102760000E94611F69837A838B839C8318C01092B7
:10277000FD201092FE201092FF2010920021109256
:10278000F9201092FA201092FB201092FC20109257
:10279000F5201092F6201092F7201092F820209148
:1027A00018203091192040911A2050911B206D89DA
:1027B0007E898F89988D0E94E9219B01AC016989EE
:1027C0007A898B899C890E94611F698B7A8B8B8B9C
:1027D0009C8B209118203091192040911A20509103
:1027E0001B20C501B4010E94E9219B01AC01698D48
:1027F0007A8D8B8D9C8D0E94611F698F7A8F8B8F54
:102800009C8F209118203091192040911A205091CE
:102810001B20C701B6010E94E9219B01AC0169811F
:102820007A818B819C810E94611F69837A838B836B
:102830009C832AEF39EC44EB58E369897A898B89C8
:102840009C890E94E9216D837E838F8398872AEF7C
:1028500039EC44EB58E3698D7A8D8B8D9C8D0E9409
:10286000E92169877A878B879C872AEF39EC44EBCB
:1028700058E369817A818B819C810E94E9216D876F
:102880007E878F87988BE0901420F0901520009120
:10289000162010911720E98AFA8A0B8B1C8B8090E6
:1028A000092190900A21A0900B21B0900C21E0907A
:1028B0000521F09006210091072110910821E98E51
:1028C000FA8E0B8F1C8F4090012150900221609056
:1028D000032170900421C0901420D0901520E09026
:1028E0001620F0901720C501B40190582D813E812B
:1028F0004F8158850E94E92169837A838B839C8369
:10290000298D3A8D4B8D5C8D69857A858B859C856B
:102910000E94E9219B01AC0169817A818B819C81B4
:102920000E94601F69837A838B839C83A301920139
:102930006D857E858F8598890E94E9219B01AC0178
:1029400069817A818B819C810E94601FA701960119
:102950000E94611F609314207093152080931620AD
:102960009093172040900121509002216090032104
:1029700070900421C0900921D0900A21E0900B2191
:10298000F0900C2129893A894B895C896D817E817F
:102990008F8198850E94E92169837A838B839C8348
:1029A000298D3A8D4B8D5C8D6D857E858F859889BF
:1029B0000E94E9219B01AC0169817A818B819C8114
:1029C0000E94611F69837A838B839C83A301920198
:1029D00069857A858B859C850E94E9219B01AC01E4
:1029E00069817A818B819C810E94601FA701960179
:1029F0000E94611F6093092170930A2180930B212B
:102A000090930C214090012150900221609003216D
:102A100070900421C0900521D0900621E0900721FC
:102A2000F090082129893A894B895C8969857A85E2
:102A30008B859C850E94E92169837A838B839C83A3
:102A4000A50194016D857E858F8598890E94E92175
:102A50009B01AC0169817A818B819C810E94601FFE
:102A600069837A838B839C83A30192016D817E812C
:102A70008F8198850E94E9219B01AC0169817A814F
:102A80008B819C810E94611FA70196010E94611F9A
:102A9000609305217093062180930721909308216C
:102AA000C0900121D0900221E0900321F0900421F8
:102AB00029893A894B895C896D857E858F859889BE
:102AC0000E94E9212B013C01A501940169857A85C9
:102AD0008B859C850E94E9219B01AC01C301B20159
:102AE0000E94611F4B015C01298D3A8D4B8D5C8DDD
:102AF0006D817E818F8198850E94E9219B01AC01C7
:102B0000C501B4010E94601FA70196010E94611FC8
:102B100060930121709302218093032190930421FB
:102B200060911420709115208091162090911720AB
:102B3000209114203091152040911620509117209B
:102B40008090092190900A21A0900B21B0900C2137
:102B50004090092150900A2160900B2170900C2127
:102B6000E0900521F09006210091072110910821A5
:102B7000ED82FE820F831887E0900521F0900621F8
:102B80000091072110910821E986FA860B871C879E
:102B9000E0900121F0900221009103211091042185
:102BA000E982FA820B831C83E0900121F0900221DC
:102BB0000091032110910421ED86FE860F87188B6A
:102BC0000E94E9216B017C01A3019201C501B401BE
:102BD0000E94E9219B01AC01C701B6010E94611F5F
:102BE0004B015C0129853A854B855C856D817E8131
:102BF0008F8198850E94E9219B01AC01C501B40138
:102C00000E94611F4B015C012D853E854F855889CF
:102C100069817A818B819C810E94E9219B01AC01B1
:102C2000C501B4010E94611F0E9409096B017C016A
:102C3000209114203091152040911620509117209A
:102C40000E94E92160931420709315208093162030
:102C5000909317202091092130910A2140910B2156
:102C600050910C21C701B6010E94E921609309210E
:102C700070930A2180930B2190930C2120910521C0
:102C8000309106214091072150910821C701B601DA
:102C90000E94E9216093052170930621809307210A
:102CA000909308212091012130910221409103212C
:102CB00050910421C701B6010E94E92160930121CE
:102CC000709302218093032190930421C85ADF4F0F
:102CD000CDBFDEBFDF91CF911F910F91FF90EF909D
:102CE000DF90CF90BF90AF909F908F907F906F902C
:102CF0005F904F903F902F90089504C061507109EC
:102D0000810991096115710581059105B9F708954A
:102D10000F931F938B019C01642F70E088EE93E06A
:102D20000E94A622ECE1F0E288E6808389E18183BB
:102D300081E090E08087918761506093232140E09B
:102D4000BF01C8010E945C021F910F9108959F92DC
:102D5000AF92BF92CF92DF92EF92FF920F931F93A9
:102D6000CF93DF936B017C01CCE1D0E20F2EF8E62C
:102D70009F2EF02D98828AE18983AA24A394B12CF6
:102D8000A886B98603E211E282E0F801808340E080
:102D9000BE01C6010E945C0298828BE18983A886ED
:102DA000B98688E1F801808340E0BE01C6010E9437
:102DB0005C02DF91CF911F910F91FF90EF90DF9018
:102DC000CF90BF90AF909F9008959F92AF92BF9287
:102DD000CF92DF92EF92FF920F931F93CF93DF93E7
:102DE0006B017C01CCE1D0E20F2EF8E69F2EF02D96
:102DF00098828CE18983AA24A394B12CA886B986F1
:102E000003E211E288E1F801808340E0BE01C601DF
:102E10000E945C0298828DE18983A886B98682E04F
:102E2000F801808340E0BE01C6010E945C02DF9190
:102E3000CF911F910F91FF90EF90DF90CF90BF90B7
:102E4000AF909F9008952F923F924F925F926F9212
:102E50007F928F929F92AF92BF92CF92DF92EF922A
:102E6000FF920F931F93CF93DF936B017C01CCE113
:102E7000D0E20F2EF8E69F2EF02D98820F2EF5E26D
:102E80006F2EF02D6982AA24A394B12CA886B9864E
:102E900003E211E20F2EFCE04F2EF02DF8014082EC
:102EA00040E0BE01C6010E945C0298820F2EF6E24D
:102EB0007F2EF02D7982A886B9860F2EFAE05F2E3C
:102EC000F02DF801508240E0BE01C6010E945C0274
:102ED00098820F2EF3E63F2EF02D3982A886B98610
:102EE0008FE1F801808340E0BE01C6010E945C02D0
:102EF00098820F2EF7E28F2EF02D8982A886B98650
:102F000081E8F801808340E0BE01C6010E945C02B6
:102F10006BEA70EA81E090E0F0DE98826982A88630
:102F2000B9868CE8F801808340E0BE01C6010E94AA
:102F30005C0298827982A886B9866894222424F853
:102F4000F801208240E0BE01C6010E945C02988226
:102F50008982A886B98683E8F801808340E0BE01B3
:102F6000C6010E945C026BEA70EA81E090E0C5DE77
:102F7000988289E4898384E090E08887998741E09A
:102F8000BE01C6010E945C02F801608170E080E031
:102F900090E00E94DB2020E030E040E053E490D756
:102FA00020E030E040E85BE30E94E92120E030E0EF
:102FB00040E85FE386D76093192170931A218093CC
:102FC0001B2190931C21F801618170E080E090E06A
:102FD0000E94DB2020E030E040E053E471D720E0A5
:102FE00030E040E85BE30E94E92120E030E040E887
:102FF0005FE367D7609315217093162180931721A3
:1030000090931821F801628170E080E090E00E94C6
:10301000DB2020E030E040E053E452D720E030E015
:1030200040E85BE30E94E92120E030E040E85FE314
:1030300048D76093112170931221809313219093AC
:10304000142198826982A886B986F801408240E0FE
:10305000BE01C6010E945C0298827982A886B98668
:10306000F801508240E0BE01C6010E945C029882D5
:103070003982A886B986F801208240E0BE01C601E7
:103080000E945C0298828982A886B98681E8F8014C
:10309000808340E0BE01C6010E945C026BEA70EAD8
:1030A00081E090E02ADEDF91CF911F910F91FF9098
:1030B000EF90DF90CF90BF90AF909F908F907F90D8
:1030C0006F905F904F903F902F9008954F925F9236
:1030D0006F927F928F929F92AF92BF92CF92DF9228
:1030E000EF92FF920F931F93CF93DF936B017C01BD
:1030F000CCE1D0E20F2EF8E69F2EF02D988284E2EC
:103100008983AA24A394B12CA886B98603E211E28C
:103110008DECF801808340E0BE01C6010E945C0294
:10312000988287E68983A886B9860F2EF1E86F2EEC
:10313000F02DF801608240E0BE01C6010E945C02F1
:1031400098828AE68983A886B98680E2F80180831E
:1031500040E0BE01C6010E945C0298820F2EF5E29B
:103160005F2EF02D5982A886B9868CE0F801808305
:1031700040E0BE01C6010E945C0298820F2EF6E27A
:103180007F2EF02D7982A886B9868BE0F8018083A6
:1031900040E0BE01C6010E945C0298820F2EF3E659
:1031A0004F2EF02D4982A886B98681E0F8018083F0
:1031B00040E0BE01C6010E945C0298820F2EF7E239
:1031C0008F2EF02D8982A886B986F801608240E0B2
:1031D000BE01C6010E945C0266E570ED80E090E0F1
:1031E0008CDDC701B6012FDE98827982A886B98668
:1031F0008AE0F801808340E0BE01C6010E945C02C3
:1032000098824982A886B98686E1F801808340E0E9
:10321000BE01C6010E945C0298828982A886B98696
:10322000F801608240E0BE01C6010E945C0266E5D2
:1032300070ED80E090E061DD98825982A886B986C1
:103240008CE8F801808340E0BE01C6010E945C0268
:1032500098827982A886B98683E0F801808340E06D
:10326000BE01C6010E945C0298828982A886B98646
:1032700087E8F801808340E0BE01C6010E945C023D
:10328000DF91CF911F910F91FF90EF90DF90CF9042
:10329000BF90AF909F908F907F906F905F904F9076
:1032A00008959F92AF92BF92CF92DF92EF92FF92DA
:1032B0000F931F93CF93DF936B017C01CCE1D0E29E
:1032C0000F2EF8E69F2EF02D988287E38983AA249B
:1032D000A394B12CA886B98603E211E280E1F8013B
:1032E000808340E0BE01C6010E945C02988288E3B0
:1032F0008983A886B98681E0F801808340E0BE0119
:10330000C6010E945C02DF91CF911F910F91FF9047
:10331000EF90DF90CF90BF90AF909F9008957F92F5
:103320008F929F92AF92BF92CF92DF92EF92FF92D5
:103330000F931F93CF93DF936B017C01742ECCE12D
:10334000D0E20F2EF8E69F2EF02D98820F2EFBE68E
:103350008F2EF02D8982AA24A394B12CA886B98639
:1033600003E211E280E8F801808340E0BE01C6017B
:103370000E945C0266E573E288E090E0BEDC988221
:103380008982A886B98688248394F801808240E0E7
:10339000BE01C6010E945C0298828CE68983A886E1
:1033A000B986F801108240E0BE01C6010E945C02AD
:1033B000C701B601CCDCC701B60107DD472DC70147
:1033C000B601A6DCC701B6016CDFC701B6017EDE1F
:1033D000E0E6F6E081E1808B828683E08187DF9101
:1033E000CF911F910F91FF90EF90DF90CF90BF9002
:1033F000AF909F908F907F9008954F925F926F92C1
:103400007F928F929F92AF92BF92CF92DF92EF9274
:10341000FF920F931F93CF93DF93CDB7DEB76897DB
:10342000CDBFDEBF8C01DB01CA01ECE1F0E228E692
:1034300020832AE3218326E130E02087318741E0A1
:10344000BF010E945C02C0902720D0902820E0900D
:103450002920F0902A206091242170E0762F6627A1
:1034600080912521680F711D072E000C880B990B88
:10347000A4D6A701960106D66DD669837A838B837D
:103480009C83C0902720D0902820E0902920F090A5
:103490002A206091262170E0762F662780912721CF
:1034A000680F711D072E000C880B990B86D6A7019B
:1034B0009601E8D54FD66D837E838F839887C09021
:1034C0002720D0902820E0902920F0902A20609199
:1034D000282170E0762F662780912921680F711DC1
:1034E000072E000C880B990B68D6A7019601CAD548
:1034F00031D669877A878B879C87C0902B20D090A4
:103500002C20E0902D20F0902E2060912C2170E056
:10351000762F662780912D21680F711D072E000CD4
:10352000880B990B4AD6A7019601ACD513D66D87A7
:103530007E878F87988BC0902B20D0902C20E09096
:103540002D20F0902E2060912E2170E0762F66279E
:1035500080912F21680F711D072E000C880B990B8D
:103560002CD6A70196018ED5F5D5698B7A8B8B8BDE
:103570009C8BC0902B20D0902C20E0902D20F090A0
:103580002E206091302170E0762F662780913121C6
:10359000680F711D072E000C880B990B0ED6A70122
:1035A000960170D5D7D56D8B7E8B8F8B988FC09001
:1035B0001921D0901A21E0901B21F0901C216091DC
:1035C000332170E0762F662780913221680F711DBC
:1035D000072E000C880B990BF0D5A7019601F9D6A0
:1035E00020E030E040EC50E4F4D6B4D52B013C01AF
:1035F000C0901521D0901621E0901721F09018214D
:103600006091352170E0762F662780913421680F14
:10361000711D072E000C880B990BCFD5A7019601C1
:10362000D8D620E030E040EC50E4D3D693D54B011F
:103630005C01C0901121D0901221E0901321F090F4
:1036400014216091372170E0762F66278091362112
:10365000680F711D072E000C880B990BAED5A701C2
:103660009601B7D620E030E040EC50E4B2D672D5F7
:103670006B017C0160912A2170E0762F6627809192
:103680002B21680F711D072E000C880B990B95D507
:1036900023E43DEA45E550E4F5D45CD56C5C774F16
:1036A000E3E2F1E28081F801808389819A8181835C
:1036B00092838D819E818383948389859A85858376
:1036C0009683678370878D859E8581879287898998
:1036D0009A89838794878D899E898587968747866F
:1036E000508A818A928AC38AD48AC8016896CDBFDB
:1036F000DEBFDF91CF911F910F91FF90EF90DF9090
:10370000CF90BF90AF909F908F907F906F905F9081
:103710004F9008951F920F920FB60F9211248F931E
:103720009F93AF93BF9381E08093222180932121C7
:1037300080911D2190911E21A0911F21B0912021E7
:103740000196A11DB11D80931D2190931E21A09370
:103750001F21B0932021BF91AF919F918F910F9026
:103760000FBE0F901F901895CF93DF93EB010E942F
:10377000C8028883DF91CF9108950C94C002089508
:10378000CF93DF93CDB7DEB72797CDBFDEBF60E124
:1037900084E03AD1E0E6F6E080818860808380EAC8
:1037A00099E080933E2290933F228DEB9BE18093A2
:1037B0003C2290933D2284EB9BE1809323229093C3
:1037C0002422EFE2F0E284818D8385818E838681DD
:1037D0008F8380819181A281B38189839A83AB8316
:1037E000BC8360E184E010D1BE016F5F7F4F80EA4F
:1037F00099E00E94E10361E571E08EEB9CE1DCD68B
:103800002796CDBFDEBFDF91CF9108951F920F9213
:103810000FB60F9211242F933F934F935F936F93A3
:103820007F938F939F93AF93BF93EF93FF934091B9
:10383000240250912502E0912522F091262261E098
:1038400080E092E00995FF91EF91BF91AF919F9138
:103850008F917F916F915F914F913F912F910F9039
:103860000FBE0F901F9018951F920F920FB60F92D8
:1038700011242F933F934F935F936F937F938F9375
:103880009F93AF93BF93EF93FF9340912C0250917E
:103890002D02E0912522F091262262E080E092E064
:1038A0000995FF91EF91BF91AF919F918F917F917A
:1038B0006F915F914F913F912F910F900FBE0F909D
:1038C0001F9018951F920F920FB60F9211242F93ED
:1038D0003F934F935F936F937F938F939F93AF9398
:1038E000BF93EF93FF934091340250913502E091E2
:1038F0002522F091262264E080E092E00995FF9174
:10390000EF91BF91AF919F918F917F916F915F9157
:103910004F913F912F910F900FBE0F901F901895D0
:103920001F920F920FB60F9211242F933F934F9334
:103930005F936F937F938F939F93AF93BF93EF9317
:10394000FF9340913C0250913D02E0912522F0917D
:10395000262268E080E092E00995FF91EF91BF9107
:10396000AF919F918F917F916F915F914F913F9117
:103970002F910F900FBE0F901F901895682F809178
:103980003E2290913F22E0913C22F0913D22099508
:1039900099231CF081E090E008958FEF9FEF089548
:1039A000CF93DF9300D0CDB7DEB78FEF8093700059
:1039B00080937100809372008093730080937400F1
:1039C00080937500809376008FB78A83F8949A81EC
:1039D000E0E5F0E08081826080839FBF818181FF8C
:1039E000FDCF61E080E490E02FD08FB78983F89419
:1039F0009981E0E5F0E080818E7F80839FBF0F900A
:103A00000F90DF91CF910895CF93DF931F92CDB7A1
:103A1000DEB79FB79983F8949981E82FF0E0E059D9
:103A2000FF4F60958081682360839FBF0F90DF9177
:103A3000CF9108954091CA01E62FF72F8093CA01D4
:103A400084914093CA0108951BBEFC0128ED24BF58
:103A500060830895089504C0615071098109910936
:103A60006115710581059105B9F70895009709F46D
:103A7000BDC0803C910521F460E180E0C5CF089590
:103A8000811524E0920721F464E080E0BDCF089521
:103A9000803821E0920721F462E080E0B5CF0895FC
:103AA000811521E0920721F461E080E0ADCF089517
:103AB000803823E0920721F461E081E0A5CF0895EA
:103AC000811522E0920721F462E081E09DCF089504
:103AD000803223E0920721F464E082E095CF0895DC
:103AE000811528E0920721F461E083E08DCF0895ED
:103AF000811529E0920721F461E084E085CF0895E3
:103B000081152AE0920721F461E085E07DCF0895D8
:103B1000803428E0920721F462E083E075CF0895B5
:103B2000803429E0920721F462E084E06DCF0895AB
:103B3000803928E0920721F464E083E065CF08959E
:103B4000803929E0920721F464E084E05DCF089594
:103B500080392AE0920721F464E085E055CF08958A
:103B6000803C28E0920721F468E083E04DCF08957F
:103B7000803C29E0920721F468E084E045CF089575
:103B8000803A28E0920721F460E183E03DCF089578
:103B9000803A29E0920721F460E184E035CF08956E
:103BA000803A2AE0920721F460E185E02DCF089564
:103BB000803B28E0920721F460E283E025CF08955E
:103BC000803B29E0920721F460E284E01DCF089554
:103BD000803824E0920721F460E483E015CF089553
:103BE000803A944019F460E485E00ECF0895CF93B5
:103BF000DF93CDB7DEB7C354D109CDBFDEBF2ADF17
:103C00000E94E20466E570ED80E090E024DFC8DE0B
:103C1000B7DD6BEA70EA81E090E01DDF00E416E0BA
:103C2000FF24FA94D801FC921496FC926BEA76E495
:103C300080E190E010DFF80114826BEA76E480E125
:103C400090E009DF0F2EF9E0EF2EF02D9E012F5F9F
:103C50003F4F6901D901EE2D1D92EA95E9F780E801
:103C60009AE1A6E0B0E089839A83AB83BC8383E2C8
:103C700090E0A0E0B0E08D839E83AF83B88780EAB8
:103C800094E0F4DE80E092E0F1DE5E01FAE0AF0E57
:103C9000B11CD5011D92EA94E9F780E593ECA0E010
:103CA000B0E08A879B87AC87BD8780E58A8B8BE3F2
:103CB00091E0A0E0B0E08E879F87A88BB98B80EA67
:103CC00094E0D4DEB50180EA94E00E944702B60198
:103CD00080EA94E00E944702E0EAF4E08181886093
:103CE000818360EA74E080E090E00E941905F801A9
:103CF000F08286E390E2BDD4C12CD12C76010F2E48
:103D0000F8E92F2EF0E23F2EF02D0E940B05082F30
:103D1000192F40EA54E060E070E0CE0143960E9423
:103D20001D058B899C89AD89BE8924968CAF9DAF7A
:103D3000AEAFBFAF24978F88988CA98CBA8C4B8C70
:103D40005C8C6D8C7E8C10924406C301B20102D251
:103D50006CAB7DAB8EAB9FABC501B401FBD168AF43
:103D600079AF8AAF9BAF24966CAD7DAD8EAD9FAD24
:103D70002497F0D16CAF7DAF8EAF9FAF8FA18F93A3
:103D80008EA18F938BA98F938AA98F9389A98F93E3
:103D900088A98F938FA58F938EA58F938DA58F93D1
:103DA0008CA58F938BA58F938AA58F9389A58F93CD
:103DB00088A58F938DA18F938CA18F938BA18F93C7
:103DC0008AA18F9389A18F9388A18F93ACA9BDA954
:103DD000BD01BB0F880B990BF0D19B01AC01C30156
:103DE000B2016ED020E030E04AE754E4F2D2B2D122
:103DF0009B01772324F422273327261B370B3F937D
:103E00002F93BDA9BF93ECA9EF9328AD39ADB901AC
:103E1000330F880B990BD1D19B01AC01C501B401C3
:103E20004FD020E030E04AE754E4D3D293D19B0155
:103E3000772324F422273327261B370B3F932F9316
:103E400039AD3F9388AD8F93ACADBDADBD01BB0F18
:103E5000880B990BB2D19B01AC0124966CAD7DAD62
:103E60008EAD9FAD24972CD020E030E04AE754E49B
:103E7000B0D270D19B01772324F422273327261B4D
:103E8000370B3F932F93BDADBF93ECADEF931F93D3
:103E90000F93FF92EF92DF92CF923F922F92D6D361
:103EA000FFEFF09344062FEFC21AD20AE20AF20A99
:103EB000CDBFDEBF66E570ED80E090E0CCDD25CFC4
:103EC0005058BB27AA270ED03FC230D230F035D28F
:103ED00020F031F49F3F11F41EF4EFC10EF4E09591
:103EE000E7FBE5C1E92F41D280F3BA1762077307F8
:103EF0008407950718F071F49EF559C20EF4E09509
:103F00000B2EBA2FA02D0B01B90190010C01CA0193
:103F1000A0011124FF27591B99F0593F50F4503E3E
:103F200068F11A16F040A22F232F342F4427585F30
:103F3000F3CF469537952795A795F0405395C9F748
:103F40007EF41F16BA0B620B730B840BBAF0915000
:103F5000A1F0FF0FBB1F661F771F881FC2F70EC09F
:103F6000BA0F621F731F841F48F487957795679572
:103F7000B795F7959E3F08F0B3CF9395880F08F05B
:103F80009927EE0F9795879508959F939F77EEE376
:103F900089379E0720F4ECEFF1E0B7D109C048D192
:103FA0009058A2EA2AED3FE049EC5FE39BDFCCD1D9
:103FB0000F9007FC90580895B9D158F080E891E02F
:103FC00009F49EEFBAD128F040E851E059F45EEFD1
:103FD00009C073C1ECC1E92FE078C7D168F3092E9D
:103FE000052AC1F3261737074807590738F00E2E60
:103FF00007F8E02569F0E025E0640AC0EF6307F800
:10400000009407FADB01B9019D01DC01CA01AD0191
:10401000EF9347D099D10AD05F91552331F02BED22
:104020003FE049E450FD49EC4CCF0895DF93DD2794
:10403000B92FBF7740E85FE31616170648075B07FE
:1040400010F4D92FBFD19F938F937F936F9366D234
:10405000E0E1F2E035D178D12F913F914F915F911E
:10406000C4D1DD2349F09058A2EA2AED3FE049ECA3
:104070005FE3D0785D2736DFDF9166C1F4D008F4C6
:1040800081E008950CD060C158D140F04FD130F09C
:1040900021F45F3F19F00BC151118AC10EC165D1E6
:1040A00098F39923C9F35523B1F3951B550BBB27FF
:1040B000AA2762177307840738F09F5F5F4F220FAC
:1040C000331F441FAA1FA9F333D00E2E3AF0E0E8A5
:1040D00030D091505040E695001CCAF729D0FE2FF1
:1040E00027D0660F771F881FBB1F26173707480783
:1040F000AB07B0E809F0BB0B802DBF01FF27935839
:104100005F4F2AF09E3F510568F0D1C051C15F3F1B
:10411000ECF3983EDCF3869577956795B795F79520
:104120009F5FC9F7880F911D9695879597F9089518
:10413000E1E0660F771F881FBB1F621773078407B4
:10414000BA0720F0621B730B840BBA0BEE1F88F7C3
:10415000E095089504D06894B1112AC108950DD155
:1041600088F09F5790F0B92F9927B751A0F0D1F060
:10417000660F771F881F991F1AF0BA95C9F712C0EA
:10418000B13081F014D1B1E0089511C1672F782FBB
:104190008827B85F39F0B93FCCF386957795679556
:1041A000B395D9F73EF490958095709561957F4FC2
:1041B0008F4F9F4F0895E89409C097FB3EF4909568
:1041C0008095709561957F4F8F4F9F4F9923A9F0F0
:1041D000F92F96E9BB279395F6958795779567957F
:1041E000B795F111F8CFFAF4BB0F11F460FF1BC0C3
:1041F0006F5F7F4F8F4F9F4F16C0882311F096E956
:1042000011C0772321F09EE8872F762F05C0662303
:1042100071F096E8862F70E060E02AF09A95660FBC
:10422000771F881FDAF7880F9695879597F9089575
:10423000DF93CF931F930F938B01EC01EDE3F2E03B
:104240003FD082D09801AE018B01EC0160E070E0BC
:1042500080E89FE335DE24D19801AE010F911F91D4
:10426000CF91DF91C2C0990F0008550FAA0BE0E86B
:10427000FEEF16161706E807F907C0F01216130628
:10428000E407F50798F0621B730B840B950B39F468
:104290000A2661F0232B242B252B21F408950A26CE
:1042A00009F4A140A6958FEF811D811D089597F90E
:1042B0009F6780E870E060E008959FEF80EC0895CC
:1042C000DF93CF931F930F93FF92EF92DF927B01C7
:1042D0008C01689405C0DA2EEF0187D0FE01E894C6
:1042E000A5912591359145915591AEF3EF01FADDF8
:1042F000FE019701A801DA9479F7DF90EF90FF9023
:104300000F911F91CF91DF9108959F938F937F938A
:104310006F93FF93EF939B01AC015BD0EF91FF9103
:10432000CFDF2F913F914F915F9153C000240A94AA
:104330001616170618060906089500240A94121680
:104340001306140605060895092E0394000C11F4B3
:10435000882352F0BB0F40F4BF2B11F460FF04C060
:104360006F5F7F4F8F4F9F4F089557FD9058440FB9
:10437000551F59F05F3F71F04795880F97FB991FC4
:1043800061F09F3F79F08795089512161306140681
:10439000551FF2CF4695F1DF08C01616170618060E
:1043A000991FF1CF86957105610508940895E894E9
:1043B000BB2766277727CB0197F9089554DF08F4C8
:1043C0008FEF08959B01AC0160E070E080E89FE30F
:1043D00059CE0BD0B9CFAADF28F0AFDF18F0952364
:1043E00009F065CF6ACF1124E3CFBFDFA0F3959F1B
:1043F000D1F3950F50E0551F629FF001729FBB27CC
:10440000F00DB11D639FAA27F00DB11DAA1F649F77
:104410006627B00DA11D661F829F2227B00DA11D2A
:10442000621F739FB00DA11D621F839FA00D611DB0
:10443000221F749F3327A00D611D231F849F600DD1
:10444000211D822F762F6A2F11249F5750408AF00A
:10445000E1F088234AF0EE0FFF1FBB1F661F771F96
:10446000881F91505040A9F79E3F510570F01FCF13
:104470009FCF5F3FECF3983EDCF386957795679589
:10448000B795F795E7959F5FC1F7FE2B880F911DB4
:104490009695879597F9089511F40EF40ECF41C0C3
:1044A0006CDFD0F39923D9F3CEF39F57550B87FFD9
:1044B00046D00024A0E640EA900180585695979592
:1044C00028F4805C660F771F881F20F026173707B7
:1044D000480730F4621B730B840B202931294A2BC7
:1044E000A69517940794202531254A2758F7660F7B
:1044F000771F881F20F026173707480730F4620B14
:10450000730B840B200D311D411DA09581F7B9015E
:10451000842F9158880F9695879508959B01AC013B
:1045200058CF9F3F31F0915020F48795779567954C
:10453000B795880F911D9695879597F90895915095
:104540005040660F771F881FD2F70895AA1BBB1B28
:1045500051E107C0AA1FBB1FA617B70710F0A61B83
:10456000B70B881F991F5A95A9F780959095BC01A4
:10457000CD010895A1E21A2EAA1BBB1BFD010DC09F
:10458000AA1FBB1FEE1FFF1FA217B307E407F50703
:1045900020F0A21BB30BE40BF50B661F771F881FDF
:1045A000991F1A9469F760957095809590959B0175
:1045B000AC01BD01CF0108950F931F93CF93DF93FB
:1045C000009731F46115710519F480E090E039C06D
:1045D0008B01EC016EE070E081E090E04CD2FC01D8
:1045E000892B99F380E883830115110571F0028707
:1045F000138781E883838091402290914122892B07
:1046000021F4E0934022F09341222097C9F0C08723
:10461000D18783818260838380914222909143225B
:10462000892B71F4E0934222F0934322809144223B
:1046300090914522892B21F4E0934422F093452266
:10464000CF01DF91CF911F910F910895A0E0B0E0CD
:10465000EBE2F3E212C4AE014B5F5F4FFA016191EE
:104660007191AF01809142229091432232D0E2E0D9
:104670001DC40F931F93CF93DF93E0914222F091DB
:104680004322238121FF1BC08C01D0E0C0E0F80150
:1046900081918F016091422270914322DB01189633
:1046A000ED91FC911997882331F00995892B79F3C5
:1046B000DFEFCFEFECCF8AE00995892B19F08FEF70
:1046C0009FEF02C08D2F9C2FDF91CF911F910F91F3
:1046D0000895ABE0B0E0EEE6F3E2BFC36C017B010E
:1046E0008A01FC0116821782838181FFBFC1CE013E
:1046F00001963C01F6019381F70193FD859193FFAB
:1047000081917F01882309F4ADC1853239F493FD8D
:10471000859193FF81917F01853221F4B60190E06C
:1047200002D3E8CF912C212C312CFFE1F315D8F0E6
:104730008B3279F038F4803279F08332A1F4232D72
:1047400020611DC08D3261F0803369F4232D21601A
:1047500016C0832D8260382EE32DE4603E2E2AC0E1
:10476000F32DF8601DC037FC2DC020ED280F2A3036
:1047700040F08E32B9F436FC75C1232D2064322E00
:1047800019C036FE06C08AE0989E200D1124922E94
:1047900011C0EAE02E9E200D1124222EF32DF0628E
:1047A0003F2E08C08C3621F4832D8068382E02C03D
:1047B000883641F4F70193FD859193FF81917F0144
:1047C0008111B3CF982F9F7D9554933028F40C5FBF
:1047D0001F4F9FE399830DC0833631F0833771F00B
:1047E000833509F055C020C0F801808189830E5FB0
:1047F0001F4F88248394912C530112C02801F2E0AA
:104800004F0E511CF801A080B18036FE03C0692D07
:1048100070E002C06FEF7FEFC5017AD24C018201D8
:10482000F32DFF773F2E15C0280122E0420E511CC8
:10483000F801A080B18036FE03C0692D70E002C08F
:104840006FEF7FEFC50152D24C01F32DF0683F2E80
:10485000820133FC19C0822D90E088169906A0F4DD
:10486000B60180E290E05FD22A94F5CFF50137FCE3
:10487000859137FE81915F01B60190E054D22110FD
:104880002A9421E0821A91088114910479F7E1C0F9
:10489000843611F0893639F5F80137FE07C060819A
:1048A0007181828193810C5F1F4F08C0608171818B
:1048B000072E000C880B990B0E5F1F4FF32DFF7610
:1048C0003F2E97FF09C090958095709561957F4F19
:1048D0008F4F9F4FF0683F2E2AE030E0A3015FD258
:1048E000882E861844C0853731F4232D2F7EB22EB2
:1048F0002AE030E025C0932D997FB92E8F36C1F084
:1049000018F4883579F0AEC0803719F0883721F077
:10491000A9C0E92FE061BE2EB4FE0DC0FB2DF460EE
:10492000BF2E09C034FE0AC0292F2660B22E06C051
:1049300028E030E005C020E130E002C020E132E0B4
:10494000F801B7FE07C060817181828193810C5F9D
:104950001F4F06C06081718180E090E00E5F1F4FA5
:10496000A3011DD2882E8618FB2DFF773F2E36FE21
:104970000DC0232D2E7FA22E891458F434FE0BC0B7
:1049800032FC09C0832D8E7EA82E05C0B82CA32C26
:1049900003C0B82C01C0B92CA4FE0FC0FE01E80D65
:1049A000F11D8081803321F49A2D997EA92E09C0B2
:1049B000A2FE06C0B394B39404C08A2D867809F091
:1049C000B394A3FC10C0A0FE06C0B21480F4280C5F
:1049D000922C9B180DC0B21458F4B60180E290E0FE
:1049E000A2D1B394F8CFB21418F42B1802C0982CAB
:1049F000212CA4FE0FC0B60180E390E094D1A2FE6A
:104A000016C0A1FC03C088E790E002C088E590E0F2
:104A1000B6010CC08A2D867851F0A1FE02C08BE24F
:104A200001C080E2A7FC8DE2B60190E07CD1891440
:104A300030F4B60180E390E076D19A94F8CF8A946E
:104A4000F301E80DF11D8081B60190E06CD1811079
:104A5000F6CF222009F44ECEB60180E290E063D179
:104A60002A94F7CFF6018681978102C08FEF9FEFDE
:104A70002B96E2E10BC20F931F93CF93DF93869F98
:104A80008001879F100D969F100D1124C8010DD035
:104A9000EC01009721F0A80160E070E032D1CE0176
:104AA000DF91CF911F910F9108950F931F93CF9393
:104AB000DF938230910510F482E090E0E09148228B
:104AC000F091492220E030E0A0E0B0E0309719F109
:104AD000408151810281138148175907C8F084171A
:104AE000950769F4109731F012960C93129713966C
:104AF0001C9327C0009348221093492222C02115FD
:104B0000310519F04217530718F49A01BD01EF015E
:104B1000DF01F801DBCF21153105F9F0281B390B36
:104B20002430310580F48A819B816115710521F063
:104B3000FB018283938304C080934822909349228F
:104B4000FE01329644C0FE01E20FF31F8193919360
:104B500022503109288339833AC02091462230916E
:104B60004722232B41F420910220309103202093EF
:104B700046223093472220910020309101202115B8
:104B8000310541F42DB73EB74091042050910520E6
:104B9000241B350BE0914622F0914722E217F307E0
:104BA000A0F42E1B3F0B2817390778F0AC014E5F9D
:104BB0005F4F2417350748F04E0F5F1F4093462282
:104BC000509347228193919302C0E0E0F0E0CF013F
:104BD000DF91CF911F910F910895CF93DF930097AD
:104BE00009F481C0FC01329712821382A0914822FD
:104BF000B0914922109781F420813181820F931F57
:104C000020914622309147222817390751F5E09329
:104C10004622F093472267C0ED0120E030E0CE1736
:104C2000DF0740F44A815B819E0141155105F1F097
:104C3000EA01F5CFC283D38340815181840F951F50
:104C4000C817D90759F488819981840F951F029656
:104C5000808391838A819B8182839383211531058F
:104C600029F4E0934822F09349223DC0E901EA8308
:104C7000FB8349915991C40FD51FEC17FD0761F4CF
:104C800080819181840F951F0296E9018883998321
:104C9000828193818A839B83E0E0F0E012968D917C
:104CA0009C911397009719F0FD01DC01F7CF8D91CE
:104CB0009C9111979D012E5F3F4F820F931F209172
:104CC0004622309147222817390769F4309729F492
:104CD000109248221092492202C012821382A0939D
:104CE0004622B0934722DF91CF910895FC010590B1
:104CF000615070400110D8F7809590958E0F9F1FDE
:104D00000895DC0101C06D9341505040E0F70895D3
:104D1000FC016150704001900110D8F7809590958A
:104D20008E0F9F1F08950F931F93CF93DF93FB0167
:104D3000238121FD03C08FEF9FEF2CC022FF16C0FF
:104D400046815781248135814217530744F4A0815D
:104D5000B1819D012F5F3F4F208331838C9326814A
:104D600037812F5F3F4F2683378314C08B01EC01BF
:104D7000FB010084F185E02D0995892BE1F6D8012E
:104D800016968D919C911797019616968D939C93EC
:104D90001797CE01DF91CF911F910F910895FA01DE
:104DA000AA27283051F1203181F1E8946F936E7F6A
:104DB0006E5F7F4F8F4F9F4FAF4FB1E03ED0B4E05B
:104DC0003CD0670F781F891F9A1FA11D680F791F9C
:104DD0008A1F911DA11D6A0F711D811D911DA11DAD
:104DE00020D009F468943F912AE0269F11243019BD
:104DF000305D3193DEF6CF010895462F4770405D58
:104E00004193B3E00FD0C9F7F6CF462F4F70405D06
:104E10004A3318F0495D31FD4052419302D0A9F761
:104E2000EACFB4E0A6959795879577956795BA955B
:104E3000C9F700976105710508959B01AC010A2E21
:104E400006945795479537952795BA95C9F7620FF8
:104E5000731F841F951FA01D08952F923F924F929C
:104E60005F926F927F928F929F92AF92BF92CF92FA
:104E7000DF92EF92FF920F931F93CF93DF93CDB703
:104E8000DEB7CA1BDB0BCDBFDEBF09942A88398889
:104E900048885F846E847D848C849B84AA84B984D2
:104EA000C884DF80EE80FD800C811B81AA81B981DE
:104EB000CE0FD11DCDBFDEBFED010895F894FFCF19
:104EC00000004A22200006001CFD0EFFDCFE430A03
:104ED0009401C1FE0000803F0000C8436804000048
:104EE000010023210100006F1203400000803F00F9
:104EF000C201000300015061636B657420232C2004
:104F00004144432C202050697463682C2020205297
:104F10006F6C6C2C202020205961772C204163631A
:104F2000582C20416363592C204163635A2C4779E4
:104F3000726F582C4779726F592C4779726F5A2CBF
:104F4000204D6167582C204D6167592C204D6167B9
:104F50005A2C2054656D700025386C752C253464EE
:104F60002C2533642E253033642C2533642E2530D4
:104F700033642C2533642E253033642C2535642C82
:104F80002535642C2535642C2535642C2535642C79
:104F90002535642C2535642C2535642C2535642C69
:064FA0002535640A000043
:00000001FF
